{
  "_format": "hh-sol-artifact-1",
  "contractName": "SimpleStorage",
  "sourceName": "contracts/SimpleStorage.sol",
  "abi": [
    {
      "inputs": [
        {
          "internalType": "string",
          "name": "_name",
          "type": "string"
        },
        {
          "internalType": "uint256",
          "name": "_favoriteNumber",
          "type": "uint256"
        }
      ],
      "name": "addPerson",
      "outputs": [],
      "stateMutability": "nonpayable",
      "type": "function"
    },
    {
      "inputs": [],
      "name": "getName",
      "outputs": [
        {
          "internalType": "string",
          "name": "",
          "type": "string"
        }
      ],
      "stateMutability": "view",
      "type": "function"
    },
    {
      "inputs": [],
      "name": "getNum",
      "outputs": [
        {
          "internalType": "uint256",
          "name": "num",
          "type": "uint256"
        }
      ],
      "stateMutability": "view",
      "type": "function"
    },
    {
      "inputs": [
        {
          "internalType": "string",
          "name": "",
          "type": "string"
        }
      ],
      "name": "nameToFavoriteNumber",
      "outputs": [
        {
          "internalType": "uint256",
          "name": "",
          "type": "uint256"
        }
      ],
      "stateMutability": "view",
      "type": "function"
    },
    {
      "inputs": [
        {
          "internalType": "uint256",
          "name": "",
          "type": "uint256"
        }
      ],
      "name": "people",
      "outputs": [
        {
          "internalType": "uint256",
          "name": "favoriteNumber",
          "type": "uint256"
        },
        {
          "internalType": "string",
          "name": "name",
          "type": "string"
        }
      ],
      "stateMutability": "view",
      "type": "function"
    },
    {
      "inputs": [],
      "name": "retrieve",
      "outputs": [
        {
          "internalType": "uint256",
          "name": "",
          "type": "uint256"
        }
      ],
      "stateMutability": "view",
      "type": "function"
    },
    {
      "inputs": [
        {
          "internalType": "uint256",
          "name": "_favoriteNumber",
          "type": "uint256"
        }
      ],
      "name": "store",
      "outputs": [],
      "stateMutability": "nonpayable",
      "type": "function"
    }
  ],
  "bytecode": "0x608060405234801561001057600080fd5b50610908806100206000396000f3fe608060405234801561001057600080fd5b506004361061007d5760003560e01c806367e0badb1161005b57806367e0badb146100da5780636f760f41146100f85780638bab8dd5146101145780639e7a13ad146101445761007d565b806317d7de7c146100825780632e64cec1146100a05780636057361d146100be575b600080fd5b61008a610175565b6040516100979190610522565b60405180910390f35b6100a861022b565b6040516100b5919061055d565b60405180910390f35b6100d860048036038101906100d391906105b8565b610234565b005b6100e261023e565b6040516100ef919061055d565b60405180910390f35b610112600480360381019061010d919061071a565b61026c565b005b61012e60048036038101906101299190610776565b6102fc565b60405161013b919061055d565b60405180910390f35b61015e600480360381019061015991906105b8565b61032a565b60405161016c9291906107bf565b60405180910390f35b6060600160008154811061018c5761018b6107ef565b5b906000526020600020906002020160010180546101a89061084d565b80601f01602080910402602001604051908101604052809291908181526020018280546101d49061084d565b80156102215780601f106101f657610100808354040283529160200191610221565b820191906000526020600020905b81548152906001019060200180831161020457829003601f168201915b5050505050905090565b60008054905090565b8060008190555050565b60006001600081548110610255576102546107ef565b5b906000526020600020906002020160000154905090565b600160405180604001604052808381526020018481525090806001815401808255809150506001900390600052602060002090600202016000909190919091506000820151816000015560208201518160010190805190602001906102d29291906103e6565b505050806002836040516102e691906108bb565b9081526020016040518091039020819055505050565b6002818051602081018201805184825260208301602085012081835280955050505050506000915090505481565b6001818154811061033a57600080fd5b90600052602060002090600202016000915090508060000154908060010180546103639061084d565b80601f016020809104026020016040519081016040528092919081815260200182805461038f9061084d565b80156103dc5780601f106103b1576101008083540402835291602001916103dc565b820191906000526020600020905b8154815290600101906020018083116103bf57829003601f168201915b5050505050905082565b8280546103f29061084d565b90600052602060002090601f016020900481019282610414576000855561045b565b82601f1061042d57805160ff191683800117855561045b565b8280016001018555821561045b579182015b8281111561045a57825182559160200191906001019061043f565b5b509050610468919061046c565b5090565b5b8082111561048557600081600090555060010161046d565b5090565b600081519050919050565b600082825260208201905092915050565b60005b838110156104c35780820151818401526020810190506104a8565b838111156104d2576000848401525b50505050565b6000601f19601f8301169050919050565b60006104f482610489565b6104fe8185610494565b935061050e8185602086016104a5565b610517816104d8565b840191505092915050565b6000602082019050818103600083015261053c81846104e9565b905092915050565b6000819050919050565b61055781610544565b82525050565b6000602082019050610572600083018461054e565b92915050565b6000604051905090565b600080fd5b600080fd5b61059581610544565b81146105a057600080fd5b50565b6000813590506105b28161058c565b92915050565b6000602082840312156105ce576105cd610582565b5b60006105dc848285016105a3565b91505092915050565b600080fd5b600080fd5b7f4e487b7100000000000000000000000000000000000000000000000000000000600052604160045260246000fd5b610627826104d8565b810181811067ffffffffffffffff82111715610646576106456105ef565b5b80604052505050565b6000610659610578565b9050610665828261061e565b919050565b600067ffffffffffffffff821115610685576106846105ef565b5b61068e826104d8565b9050602081019050919050565b82818337600083830152505050565b60006106bd6106b88461066a565b61064f565b9050828152602081018484840111156106d9576106d86105ea565b5b6106e484828561069b565b509392505050565b600082601f830112610701576107006105e5565b5b81356107118482602086016106aa565b91505092915050565b6000806040838503121561073157610730610582565b5b600083013567ffffffffffffffff81111561074f5761074e610587565b5b61075b858286016106ec565b925050602061076c858286016105a3565b9150509250929050565b60006020828403121561078c5761078b610582565b5b600082013567ffffffffffffffff8111156107aa576107a9610587565b5b6107b6848285016106ec565b91505092915050565b60006040820190506107d4600083018561054e565b81810360208301526107e681846104e9565b90509392505050565b7f4e487b7100000000000000000000000000000000000000000000000000000000600052603260045260246000fd5b7f4e487b7100000000000000000000000000000000000000000000000000000000600052602260045260246000fd5b6000600282049050600182168061086557607f821691505b602082108114156108795761087861081e565b5b50919050565b600081905092915050565b600061089582610489565b61089f818561087f565b93506108af8185602086016104a5565b80840191505092915050565b60006108c7828461088a565b91508190509291505056fea264697066735822122081ad40728509b0d4af89f12e6787334f7a6165a8b36a41408c5606955ae68e1164736f6c63430008090033",
  "linkReferences": {},
  "deployedLinkReferences": {}
}